:100000000C9435000C9452000C9452000C94110284
:100010000C9446020C9452000C9452000C94520022
:100020000C9452000C9452000C9452000C947B02DD
:100030000C9452000C9452000C9452000C945200F8
:100040000C94C7010C9452000C9452000C94520072
:100050000C9452000C9452000C9452000C945200D8
:100060000C9452000C945200300611241FBECFEFA6
:10007000D8E0DEBFCDBF21E0A0E0B1E001C01D921D
:10008000AE37B207E1F710E0C5E3D0E004C0219736
:10009000FE010E94C206C433D107C9F70E94F402D0
:1000A0000C94D7060C940000883020F08D3008F4B2
:1000B0008DE08E508770806480937C0080917A0000
:1000C000806480937A0080917A0086FDFCCF8091D5
:1000D00078009091790008953FB7F89480917A0163
:1000E00090917B01A0917C01B0917D0126B5A89BE8
:1000F00005C02F3F19F00196A11DB11D3FBFBA2FBA
:10010000A92F982F8827BC01CD01620F711D811D79
:10011000911D42E0660F771F881F991F4A95D1F7FE
:1001200008952FB7F89460917601709177018091CE
:100130007801909179012FBF0895CF93DF93EC015F
:1001400088810E9454004B8129813A81442359F0CF
:10015000A901415F5F4F4817590728F41B828B8123
:10016000DF91CF9108950F9628173907C0F381E0EA
:100170008B83F5CF0F931F93CF93DF93EC01EC812B
:10018000FD8180819E8189239F81923079F488232B
:1001900041F00E946C006C877D878E879F8783E08B
:1001A0008F83DF91CF911F910F9108959F8193309D
:1001B000C1F78111F6CF0E946C000C851D852E853C
:1001C0003F85601B710B820B930B2AE330E040E00C
:1001D00050E00E949506398B288B1F82E2CF0F9347
:1001E0001F93CF93DF93EC010E946C002F8121308D
:1001F00021F5088519852A853B85601B710B820BCB
:10020000930B6A30710581059105B8F0EA81FB8195
:1002100090818E81809589238083E881F981908106
:100220008E81809589238083EA81FB8190818E81F4
:1002300080958923808382E08F838F81823090F044
:100240000E9491000A891B892C893D89601B710BD2
:10025000820B930B6F3171058105910518F01F8298
:10026000198A188ADF91CF911F910F910895BF923B
:10027000CF92DF92EF92FF920F931F93CF93DF9372
:100280008C01DC011696DC9116971296CD90DD90CC
:10029000ED90FC901597DD3078F0B8E9CB16B1E21F
:1002A000DB06E104F10430F0DF3021F4DC01ED91F4
:1002B000FC911782C0E018C0FC0187812CE02D1B47
:1002C0008F3F09F02D2F4CE251E0249FC001259F64
:1002D000900D1124B0E0A0E0C816D906EA06FB068E
:1002E00070F4D8011A96CC918C2FDF91CF911F9189
:1002F0000F91FF90EF90DF90CF90BF900895A701EE
:100300009601281B390B4A0B5B0BF80181852838B5
:10031000F3E13F074105510590F5D8011896CC91BE
:100320008823D9F0AC2FB0E00E94B70628E833E16B
:1003300040E050E00E9495062C1738F5C21BB8E942
:10034000CB16B1E2DB06E104F10470F2DC3061F6B9
:10035000D801ED91FC911782C7CFF801B284BC1689
:1003600070F7CB19AC2FB0E00E94B70628E833E154
:1003700040E050E00E949506CB2DC20FE0CF8111E6
:1003800004C0D8011896CC91DACFC0E0D8CF1F9224
:100390000F920FB60F9211242F933F938F939F9339
:1003A000AF93BF938091760190917701A0917801EE
:1003B000B09179013091750123E0230F2D3768F159
:1003C00026E8230F0296A11DB11D2093750180938D
:1003D000760190937701A0937801B0937901809191
:1003E0007A0190917B01A0917C01B0917D010196F1
:1003F000A11DB11D80937A0190937B01A0937C0194
:10040000B0937D01BF91AF919F918F913F912F91BB
:100410000F900FBE0F901F9018950196A11DB11D52
:10042000D4CF1F920F920FB60F9211242F933F93A8
:100430004F935F936F937F938F939F93AF93BF93EC
:10044000EF93FF9380916B008F7D80936B00809181
:1004500012018250823020F48BE091E00E94BA00B9
:1004600080916B00806280936B00FF91EF91BF9150
:10047000AF919F918F917F916F915F914F913F913C
:100480002F910F900FBE0F901F9018951F920F92F3
:100490000FB60F9211242F933F934F935F936F9357
:1004A0007F938F939F93AF93BF93EF93FF9380912D
:1004B0006C008E7F80936C00809128018250823086
:1004C00020F481E291E00E94BA0080916C0081608A
:1004D00080936C00FF91EF91BF91AF919F918F91AD
:1004E0007F916F915F914F913F912F910F900FBE30
:1004F0000F901F9018951F920F920FB60F92112414
:100500008F939F9378948091440190914301891730
:1005100008F04DC0429A90914201891708F049C0F5
:10052000419A90914101891708F045C02C9A909109
:100530004001891708F041C02B9A90913F0189171B
:1005400008F03DC02A9A90913E018917D0F5299A6A
:1005500090913D018917B8F5289A90913C0189172F
:10056000A0F55F9A90913B01891788F55E9A90916A
:100570003A01891770F55D9A90913901891758F5FC
:100580005C9A90913801891740F55B9A90913701F8
:10059000891728F55A9A8F5F843619F180934401A0
:1005A0009F918F910F900FBE0F901F9018954298BA
:1005B000B2CF4198B6CF2C98BACF2B98BECF2A98FD
:1005C000C2CF2998C5CF2898C8CF5F98CBCF5E9867
:1005D000CECF5D98D1CF5C98D4CF5B98D7CF5A98C7
:1005E000DACF10924401DCCFCF93DF93CDB7DEB7E3
:1005F00061970FB6F894DEBF0FBECDBF789484B577
:10060000836084BD85B5836085BD80916E00816007
:1006100080936E0082E080938100809181008160F0
:100620008093810080918000816080938000809120
:10063000B10084608093B1008091B00081608093AC
:10064000B00087E880937A001092C100E5E4F1E001
:1006500082E591E011928E179F07E1F78FB7F8942A
:10066000E7E3F1E021E0E434F20711F01192FACF70
:10067000429841982C982B982A98299828985F9806
:100680005E985D985C985B985A988FBF8FB7F89486
:100690003A9A399A249A239A229A219A209A579A16
:1006A000569A559A549A539A529A8FBF1092800034
:1006B00089E0809381008FE891E090938900809396
:1006C000880080916F00826080936F0010924401D7
:1006D000E0915801F0915901A081B1818C919681EE
:1006E000892B8C93A281B3819C91868180958923EB
:1006F0008C931782118A108AE0915A01F0915B0164
:10070000A081B1818C919681892B8C93A281B38138
:100710009C918681809589238C931782118A108AF7
:1007200081E080936A01AE01495F5F4F5D874C872E
:1007300037E3232E31E0332EAA24A39400915C01E9
:1007400010915D01D8018C910E94540020E0823309
:1007500091057CF09C01275D31402F34310540F03C
:100760008158924022E08F34910518F023E001C0B7
:1007700021E0F80181819281F92FFF70DF2EAC0119
:100780005F7CD80112965C934E931197E22E220F54
:10079000FF08FE151F0409F474C0907CFE2CEE24A3
:1007A000E82AF92A1296FC92EE9211970E94910083
:1007B000F80163837483858396830E9491006B01A3
:1007C0007C0100916901809168011FEF823021F066
:1007D00011E0813009F010E080915E0190915F019D
:1007E0000E949D00B82E80916701882309F488C07B
:1007F0000E949100409063015090640160906501F7
:1008000070906601641975098609970925E0EC85E1
:10081000FD8511922A95E9F72EE1298720E631E03E
:100820003A8329836B837C838D839E83188781E041
:10083000033009F080E08A8710E080916201181788
:1008400008F05EC01F8380E01D3028F4E12FF0E047
:10085000EB5BFE4F80818B87E0916001F09161013D
:10086000CE01019609951D3050F4212F30E0F90199
:10087000EB5BFE4F8083295C3E4FD9018C931F5F59
:10088000DCCF0E949100D80113964D905D906D9041
:100890007C90169764197509860997096F30710560
:1008A0008105910508F489CF11968D919C91282F8F
:1008B0002F70D21609F481CFB0E12B9FA001112433
:1008C0008827842B952BE82AF92AF801F282E18205
:1008D000233071F4F3E0DF1609F46FCF2FECF2222E
:1008E0006894F4F8D8011296FC92EE92119765CFB5
:1008F000B3E0DB1262CFEFECFE226894F5F8F2CFA2
:1009000080916C0190916D01A0916E01B0916F0189
:1009100026013701481A590A6A0A7B0A809169013F
:10092000813009F058C08091670181114EC1B5EF47
:100930004B16B1E05B066104710408F444C1BB20AE
:1009400039F080916A0120916B0130E0811102C081
:1009500030E020E0E0915601F0915701E217F307F3
:1009600029F14091520150915301609154017091CD
:100970005501D701C601841B950BA60BB70B843616
:100980009105A105B10590F0C0925201D09253019A
:10099000E0925401F0925501CF01E217F30708F0FD
:1009A000BEC0019690935701809356012091560145
:1009B00090E080E0DC01AB5BBE4FFC01E95CFE4FE8
:1009C000882319F08C3009F0ACC02C932083019659
:1009D0008D30910579F7BB2009F47AC080916701C9
:1009E000811176C080915801909159010E94EF00C9
:1009F00080915A0190915B010E94EF000E9491004A
:100A00006E877F87888B998B80917001909171019F
:100A1000A0917201B09173012E853F854889598953
:100A2000281B390B4A0B5B0BDA01C901843691058F
:100A3000A105B10508F44CC08091740100915801E2
:100A400010915901811104C000915A0110915B016C
:100A5000D80117968C91179781113AC017968C91EF
:100A60001797811135C01796AC920E946C00F8015F
:100A700060877187828793870E949100D801529680
:100A80006D937D938D939C935597ED91FC91119768
:100A9000808116969C911697892B80831296ED91F2
:100AA000FC911397808116969C91892B80832E85CB
:100AB0003F85488959892093700130937101409393
:100AC000720150937301809174018A25809374019F
:100AD00080916901811179C031E1431637E25306F3
:100AE0006104710408F471C043E0409369013092DD
:100AF0006101209260010E949100609363017093F4
:100B000064018093650190936601A092670180E083
:100B100090E0892B09F412CE0E9400000DCE0197BF
:100B200041CF1C92108253CF113009F089C068EB7D
:100B300046166BE056066104710408F481C0809388
:100B4000680172E070936901309261012092600146
:100B50000E9491006093630170936401809365012A
:100B60009093660110936701D2CF992309F468C06E
:100B7000CECF833061F6A0926901C0926C01D09211
:100B80006D01E0926E01F0926F0110926801BFCF8B
:100B900081E0BB2009F454C0109169011111C4CF48
:100BA00059E8451653E155066104710408F448C03C
:100BB000C0926C01D0926D01E0926E01F0926F01D3
:100BC0003FC082E0E6CFB1100DCF80915E019091E1
:100BD0005F010E949D0090916701882331F291117D
:100BE000C4CFE0915C01F0915D0181819281892EF9
:100BF00082949FE08922912C940123703327213025
:100C0000310521F48F7021F28130D9F2E091580141
:100C1000F0915901808991892781211104C00197A0
:100C20008C9708F4B5CFE0915A01F0915B0180896F
:100C300091892781211104C001978C9708F4C1CFB5
:100C400080916901823009F094CF10926901C092BD
:100C50006C01D0926D01E0926E01F0926F0157CF5E
:100C6000CF93DF93A1E2B1E087E290E011969C93ED
:100C70008E9388E290E013969C938E93129786E26F
:100C800090E015969C938E93149741E016964C93A2
:100C9000169717961C921797CBE0D1E084E290E06C
:100CA0009983888385E290E09B838A8383E290E046
:100CB0009D838C8380E28E831F8224E031E086E076
:100CC000F901808388E898E09283818313821482FB
:100CD0001582168280E091E057E0FC01508364E6C3
:100CE00070E0728361831382E8E5F1E0D183C08311
:100CF000B383A28335832483978386838DE08287A1
:100D000013861486158616861786108A418B128ADA
:100D1000438B148A158A168A178A108E118E128EAA
:100D2000138E148EDF91CF910895A1E21A2EAA1B83
:100D3000BB1BFD010DC0AA1FBB1FEE1FFF1FA2178B
:100D4000B307E407F50720F0A21BB30BE40BF50B88
:100D5000661F771F881F991F1A9469F76095709511
:100D6000809590959B01AC01BD01CF0108950E9433
:100D7000C806A59F900DB49F900DA49F800D911D56
:100D800011240895EE0FFF1F0590F491E02D0994B2
:100D9000A29FB001B39FC001A39F700D811D1124BC
:100DA000911DB29F700D811D1124911D0895F8941D
:020DB000FFCF73
:00000001FF
