:100000000C9435000C9452000C9452000C9416027F
:100010000C944B020C9452000C9452000C9452001D
:100020000C9452000C9452000C9452000C948002D8
:100030000C9452000C9452000C9452000C945200F8
:100040000C94CC010C9452000C9452000C9452006D
:100050000C9452000C9452000C9452000C945200D8
:100060000C9452000C945200750611241FBECFEF61
:10007000D8E0DEBFCDBF21E0A0E0B1E001C01D921D
:10008000A738B207E1F710E0C5E3D0E004C021973C
:10009000FE010E942707C433D107C9F70E94F90265
:1000A0000C942D070C940000883020F08D3008F45B
:1000B0008DE08E508770806480937C0080917A0000
:1000C000806480937A0080917A0086FDFCCF8091D5
:1000D00078009091790008953FB7F894809183015A
:1000E00090918401A0918501B091860126B5A89BCD
:1000F00005C02F3F19F00196A11DB11D3FBFBA2FBA
:10010000A92F982F8827BC01CD01620F711D811D79
:10011000911D42E0660F771F881F991F4A95D1F7FE
:1001200008952FB7F89460917F01709180018091BC
:100130008101909182012FBF0895CF93DF93EC014D
:1001400088810E9454004B8129813A81442359F0CF
:10015000A901415F5F4F4817590728F41B828B8123
:10016000DF91CF9108950F9628173907C0F381E0EA
:100170008B83F5CF0F931F93CF93DF93EC01EC812B
:10018000FD8180819E8189239F81923079F488232B
:1001900041F00E946C006C877D878E879F8783E08B
:1001A0008F83DF91CF911F910F9108959F8193309D
:1001B000C1F78111F6CF0E946C000C851D852E853C
:1001C0003F85601B710B820B930B2AE330E040E00C
:1001D00050E00E94EB06398B288B1F82E2CF0F93F1
:1001E0001F93CF93DF93EC010E946C002F8121308D
:1001F00021F5088519852A853B85601B710B820BCB
:10020000930B6A30710581059105B8F0EA81FB8195
:1002100090818E81809589238083E881F981908106
:100220008E81809589238083EA81FB8190818E81F4
:1002300080958923808382E08F838F81823090F044
:100240000E9491000A891B892C893D89601B710BD2
:10025000820B930B6F3171058105910518F01F8298
:10026000198A188ADF91CF911F910F9108958F926B
:100270009F92AF92BF92CF92DF92EF92FF92CF9375
:10028000FC0182819381A481B581843629E19207A2
:10029000A105B105C0F526812D30C8F544EF51E028
:1002A000249F6001259FD00C1124F12CE12CC285E4
:1002B0008C159D05AE05BF0570F12185211138C053
:1002C0002085C21741F12C1B330B032E000C440B6D
:1002D000550BBC01CD016C197D098E099F09653F45
:1002E000E1E07E078105910520F064EF71E080E098
:1002F00090E00E94DB0624EF31E040E050E00E94F5
:10030000EB06C20F08C0A081B18117961C928185AF
:10031000882361F0C0E08C2FCF91FF90EF90DF90A9
:10032000CF90BF90AF909F908F900895C085F3CFEE
:10033000CC2389F38C2E912CB12CA12C9C01AD01E6
:100340002C193D094E095F09253F81E03807410519
:10035000510520F024EF31E040E050E0C501B40148
:100360000E94DB0624EF31E040E050E00E94EB0603
:10037000C21B281539054A055B0568F2CBCF809171
:100380000E01811106C08FEF80930D0181E08093F3
:100390000E0180E091E008951F920F920FB60F9228
:1003A00011242F933F938F939F93AF93BF9380918B
:1003B0007F0190918001A0918101B09182013091E3
:1003C0007E0123E0230F2D3768F126E8230F0296E4
:1003D000A11DB11D20937E0180937F019093800128
:1003E000A0938101B0938201809183019091840157
:1003F000A0918501B09186010196A11DB11D809348
:10040000830190938401A0938501B0938601BF91ED
:10041000AF919F918F913F912F910F900FBE0F90B1
:100420001F9018950196A11DB11DD4CF1F920F9258
:100430000FB60F9211242F933F934F935F936F93B7
:100440007F938F939F93AF93BF93EF93FF9380918D
:100450006B008F7D80936B008091280182508230E9
:1004600020F481E291E00E94BA0080916B008062EA
:1004700080936B00FF91EF91BF91AF919F918F910E
:100480007F916F915F914F913F912F910F900FBE90
:100490000F901F9018951F920F920FB60F92112474
:1004A0002F933F934F935F936F937F938F939F937C
:1004B000AF93BF93EF93FF9380916C008E7F8093F7
:1004C0006C0080913E018250823020F487E391E0FD
:1004D0000E94BA0080916C00816080936C00FF9153
:1004E000EF91BF91AF919F918F917F916F915F91AC
:1004F0004F913F912F910F900FBE0F901F90189525
:100500001F920F920FB60F9211248F939F9378949E
:1005100080915A0190915901891708F04DC0429A73
:1005200090915801891708F049C0419A909157015C
:10053000891708F045C02C9A90915601891708F048
:1005400041C02B9A90915501891708F03DC02A9A15
:10055000909154018917D0F5299A909153018917E8
:10056000B8F5289A909152018917A0F55F9A909159
:100570005101891788F55E9A90915001891770F59D
:100580005D9A90914F01891758F55C9A90914E01B0
:10059000891740F55B9A90914D01891728F55A9A71
:1005A0008F5F843619F180935A019F918F910F903C
:1005B0000FBE0F901F9018954298B2CF4198B6CFBA
:1005C0002C98BACF2B98BECF2A98C2CF2998C5CFE6
:1005D0002898C8CF5F98CBCF5E98CECF5D98D1CF0B
:1005E0005C98D4CF5B98D7CF5A98DACF10925A0143
:1005F000DCCFCF93DF93CDB7DEB72E970FB6F8944D
:10060000DEBF0FBECDBF789484B5836084BD85B551
:10061000836085BD80916E00816080936E0082E072
:10062000809381008091810081608093810080911E
:1006300080008160809380008091B100846080930D
:10064000B1008091B00081608093B00087E8809312
:100650007A001092C1000E94BF01FC019C01235F3F
:100660003F4F1192E217F307E1F72DE2DC011D96EF
:100670002C938FB7F8942AE531E0EDE4F1E02E17E2
:100680003F0711F01192FBCF429841982C982B987C
:100690002A98299828985F985E985D985C985B984E
:1006A0005A988FBF8FB7F8943A9A399A249A239A16
:1006B000229A219A209A579A569A559A549A539A5E
:1006C000529A8FBF1092800089E0809381008FE85A
:1006D00091E0909389008093880080916F00826000
:1006E00080936F0010925A01E0916101F0916201D4
:1006F000A081B1818C919681892B8C93A281B38149
:100700009C918681809589238C931782118A108A07
:10071000E0916301F0916401A081B1818C91968197
:10072000892B8C93A281B3819C91868180958923AA
:100730008C931782118A108A81E080937301FE01E5
:100740003796FD87EC8742E0342E009165011091C9
:100750006601D8018C910E94540020E082339105FB
:100760007CF09C01275D31402F34310540F08158E9
:10077000924022E08F34910518F023E001C021E07F
:10078000F80181819281F92FFF70DF2EAC015F7C2F
:10079000D80112965C934E931197E22E220FFF0818
:1007A000FE151F0409F494C0907CFE2CEE24E82A68
:1007B000F92A1296FC92EE9211970E949100F8018C
:1007C00063837483858396830E9491006B017C010F
:1007D00000917201809171011FEF823021F011E0D0
:1007E000813009F010E080916701909168010E94CA
:1007F0009D008E8780917001882309F4AAC00E9411
:10080000910040906C0150906D0160906E0170906D
:100810006F01641975098609970925E0EC85FD8546
:1008200011922A95E9F729E6822E21E0922E9A82EA
:1008300089826B837C838D839E8318870E94BF018E
:10084000DC011D968C91898781E0033009F080E0FE
:100850008A87912C80916B01981608F07AC09F824C
:100860000E94BF01BCE0B91508F471C0FC01E90D9C
:10087000F11D80818B870E94BF013C01E0916901DD
:10088000F0916A01CE0101960995882EECE0E915F8
:10089000E8F0092D10E0F301E00FF11F80830E94C2
:1008A000BF01DC011D964C9120E0442359F0282D16
:1008B00030E0D9010E940D07242F30E050E040E0E5
:1008C0000E94EB06F801E35BFE4F20839394C2CFB6
:1008D0000E949100D80113964D905D906D907C9090
:1008E000169764197509860997096F307105810596
:1008F000910508F469CF11968D919C91282F2F7046
:10090000D21609F461CFB0E12B9FA00111248827F2
:10091000842B952BE82AF92AF801F282E182233010
:1009200071F4F3E0DF1609F44FCF2FECF222689454
:10093000F4F8D8011296FC92EE92119745CFB3E0ED
:10094000DB1242CFEFECFE226894F5F8F2CF80E0A4
:1009500091CF8091750190917601A0917701B0912E
:10096000780126013701481A590A6A0A7B0A8091E0
:100970007201813009F074C0809170018111E9C069
:100980008E84B5EF4B16B1E05B066104710408F488
:10099000A8C1882039F0809173012091740130E062
:1009A000811102C030E020E080915F0190916001F0
:1009B0008217930731F140915B0150915C01609186
:1009C0005D0170915E0146015701841A950AA60ADD
:1009D000B70AB501A401443651056105710588F0D7
:1009E000C0925B01D0925C01E0925D01F0925E01E9
:1009F0008217930708F00BC10196909360018093D2
:100A00005F019DE4892E91E0992E10E000E0002323
:100A100019F00C3009F0FDC00E94BF0120905F0169
:100A2000800F911FDC012C920E94BF01FC014585C3
:100A300020E0442359F0222D30E0D9010E940D0717
:100A4000242F30E050E040E00E94EB06D4012C93CC
:100A50000F5F1F4FBFEF8B1A9B0A0D301105B9F6C0
:100A60008E84882009F475C080917001811171C055
:100A700080916101909162010E94EF008091630179
:100A8000909164010E94EF000E9491004B015C0173
:100A90008091790190917A01A0917B01B0917C01C4
:100AA000A5019401281B390B4A0B5B0BDA01C90124
:100AB00084369105A105B10508F44BC080917D01F4
:100AC0000091610110916201811104C000916301E4
:100AD00010916401D80117968C911797811139C034
:100AE00017968C911797811134C0E1E01796EC931B
:100AF0000E946C00D80118966D937D938D939C9302
:100B00001B970E949100F801628B738B848B958BED
:100B10000190F081E02D8081D80116969C91169766
:100B2000892B80831296ED91FC9113978081169604
:100B30009C91892B80838092790190927A01A09276
:100B40007B01B0927C0180917D01B1E08B27809385
:100B50007D0180916701909168010E949D0088232A
:100B600049F180917001811125C0E0916501F091FA
:100B7000660181818F7009F457C0813009F47EC00D
:100B8000E0916101F09162018089918927812111B1
:100B900004C00197CB9708F447C0E0916301F0913E
:100BA0006401808991892781211104C00197CB9725
:100BB00008F464C08091720181114DC0E1E14E16CC
:100BC000E7E25E066104710408F445C0F3E0F093C7
:100BD000720187E3882E81E0982E90926A018092BC
:100BE00069010E94910060936C0170936D01809384
:100BF0006E0190936F01992493949092700180E01C
:100C000090E0892B09F4A1CD0E9400009CCD0197B2
:100C1000F4CE0E94BF01800F911FFC0110820E9440
:100C2000BF01D4011C9214CF81E0AE84AA2099F0B8
:100C300010917201111124C029E8421623E15206D5
:100C40006104710440F0C0927501D0927601E09287
:100C50007701F0927801809170018111D0CF80915D
:100C60007201823069F510927201C0927501D092C2
:100C70007601E0927701F0927801C1CF82E0D5CF82
:100C8000113049F738EB43163BE053066104710419
:100C900010F3809371013092720147E351E0509359
:100CA0006A01409369010E94910060936C01709306
:100CB0006D0180936E0190936F01109370019FCF2F
:100CC000833009F09CCF51E050937201C0927501BE
:100CD000D0927601E0927701F09278011092710142
:100CE0008ECF882009F435CFC3CECF93DF93A7E30F
:100CF000B1E087E290E011969C938E9388E290E0B9
:100D000013969C938E93129786E290E015969C938F
:100D10008E93149741E016964C93169717961C9253
:100D20001797C1E2D1E084E290E09983888385E25D
:100D300090E09B838A8383E290E09D838C8380E2B2
:100D40008E831F822AE131E086E0F901808388E802
:100D500098E092838183138214821582168286E141
:100D600091E057E0FC01508364E670E07283618398
:100D70001382E1E6F1E0D183C083B383A28335839C
:100D80002483978386838DE0828713861486158655
:100D900016861786108A418B128A8CE0838B148A00
:100DA000158A168A178A108E118E128E138E148E43
:100DB000DF91CF910895DB018F939F930E941C07D1
:100DC000BF91AF91A29F800D911DA39F900DB29FE7
:100DD000900D11240895A1E21A2EAA1BBB1BFD0140
:100DE0000DC0AA1FBB1FEE1FFF1FA217B307E4070A
:100DF000F50720F0A21BB30BE40BF50B661F771F62
:100E0000881F991F1A9469F7609570958095909541
:100E10009B01AC01BD01CF010895A29FB001B39F1A
:100E2000C001A39F700D811D1124911DB29F700DF3
:100E3000811D1124911D08950E940D07A59F900DFD
:100E4000B49F900DA49F800D911D11240895EE0F65
:0E0E5000FF1F0590F491E02D0994F894FFCF58
:00000001FF
