:100000001AC033C032C018C24BC22FC02EC02DC080
:100010002CC02BC02AC078C228C027C026C025C04B
:10002000C1C123C022C021C020C01FC01EC01DC02E
:100030001CC01BC07D0611241FBECFEFD4E0DEBF65
:10004000CDBF21E0A0E0B1E001C01D92AD38B20704
:10005000E1F710E0CBE1D0E003C02197FE0100D72B
:10006000CA31D107D1F7E3D201C7CACF883020F017
:100070008D3008F48DE08E508770806480937C0012
:1000800080917A00806480937A0080917A0086FD66
:10009000FCCF809178009091790008953FB7F89453
:1000A0008091890190918A01A0918B01B0918C017E
:1000B00026B5A89B05C02F3F19F00196A11DB11DC3
:1000C0003FBFBA2FA92F982F8827BC01CD01620FFF
:1000D000711D811D911D42E0660F771F881F991FBA
:1000E0004A95D1F708952FB7F894609185017091E2
:1000F000860180918701909188012FBF0895CF9349
:10010000DF93EC018881B2DF4B8129813A8144235E
:1001100059F0A901415F5F4F4817590728F41B8226
:100120008B81DF91CF9108950F9628173907C0F37F
:1001300081E08B83F5CF0F931F93CF93DF93EC0177
:10014000EC81FD8180819E8189239F81923071F4B1
:10015000882339F0A3DF6C877D878E879F8783E0B4
:100160008F83DF91CF911F910F9108959F819330DD
:10017000C1F78111F6CF92DF0C851D852E853F8555
:10018000601B710B820B930B2AE330E040E050E0E0
:1001900029D6398B288B1F82E4CF0F931F93CF93DF
:1001A000DF93EC017BDF2F81213021F50885198554
:1001B0002A853B85601B710B820B930B6A3071059E
:1001C00081059105B8F0EA81FB8190818E8180954F
:1001D00089238083E881F98190818E8180958923AC
:1001E0008083EA81FB8190818E8180958923808341
:1001F00082E08F838F81823088F075DF0A891B89C6
:100200002C893D89601B710B820B930B6F3171053B
:100210008105910518F01F82198A188ADF91CF9104
:100220001F910F910895CF92DF92EF92FF920F935B
:100230001F93CF93DF93EC018A819B81AC81BD81B9
:10024000883223E29207A105B10588F0E881F9819F
:1002500017828985882321F100E0802FDF91CF91DB
:100260001F910F91FF90EF90DF90CF9008952E8116
:10027000203178F73F813F3F19F43FE0321B232FB5
:1002800064EF71E0269FA001279F500D112470E0BC
:1002900060E084179507A607B70720F40A85DDCF2D
:1002A0000885DBCF841B950BA60BB70B9C01AD011A
:1002B0008D3D65E09607A105B10520F02CED35E0F8
:1002C00040E050E0698561112CC008858C3D954067
:1002D000A105B10510F6A4EBB0E0B2D52CED35E0E8
:1002E00040E050E07FD5CA01B9011A856CD5660F90
:1002F000771F881F991F21E430E040E050E072D55D
:100300005595479537952795802F811B990BDC01D3
:10031000A1D528EE33E040E050E064D5012F020F74
:100320009CCF8C3D9540A105B10508F095CFA4EB7D
:10033000B0E086D52CED35E040E050E053D5CA0161
:10034000B901CA85CC2ED12CF12CE12C3CD5660FFD
:10035000771F881F991F21E430E040E050E042D52C
:100360005595479537952795C701B6012CD528EEA9
:1003700033E040E050E036D50C2F021B2C153D0534
:100380004E055F0508F469CF67CF80911101811197
:1003900006C08FEF8093100181E08093110180E00F
:1003A00091E008951F920F920FB60F9211242F9390
:1003B0003F938F939F93AF93BF93809185019091CB
:1003C0008601A0918701B09188013091840123E0DA
:1003D000230F2D3768F126E8230F0296A11DB11DCA
:1003E000209384018093850190938601A0938701D7
:1003F000B09388018091890190918A01A0918B012D
:10040000B0918C010196A11DB11D8093890190933B
:100410008A01A0938B01B0938C01BF91AF919F9102
:100420008F913F912F910F900FBE0F901F901895B5
:100430000196A11DB11DD4CF1F920F920FB60F923E
:1004400011242F933F934F935F936F937F938F93D9
:100450009F93AF93BF93EF93FF9380916B008F7D3A
:1004600080936B0080912B018250823018F484E2DB
:1004700091E061DE80916B00806280936B00FF9160
:10048000EF91BF91AF919F918F917F916F915F910C
:100490004F913F912F910F900FBE0F901F90189585
:1004A0001F920F920FB60F9211242F933F934F93E9
:1004B0005F936F937F938F939F93AF93BF93EF93CC
:1004C000FF9380916C008E7F80936C00809141013E
:1004D0008250823018F48AE391E02DDE80916C0026
:1004E000816080936C00FF91EF91BF91AF919F91DC
:1004F0008F917F916F915F914F913F912F910F90CD
:100500000FBE0F901F9018951F920F920FB60F926B
:1005100011248F939F9378948091600190915F0153
:10052000891708F061C02C9A90915E01891708F034
:100530005DC02B9A90915D01891708F059C02A9AE5
:1005400090915C01891708F055C0299A90915B0140
:10055000891708F051C0289A90915A01891708F01C
:100560004DC05F9A90915901891708F049C05E9A71
:1005700090915801891708F045C05D9A90915701F4
:10058000891708F041C0419A90915601891708F0E7
:100590003DC0429A909155018917D0F5439A9091A8
:1005A00054018917B8F5449A909153018917A0F521
:1005B000459A90915201891788F55A9A9091510164
:1005C000891770F55B9A90915001891758F55C9ADC
:1005D0008F5F843649F1809360019F918F910F90D6
:1005E0000FBE0F901F9018952C989ECF2B98A2CFDE
:1005F0002A98A6CF2998AACF2898AECF5F98B2CFD5
:100600005E98B6CF5D98BACF4198BECF4298C2CF20
:100610004398C5CF4498C8CF4598CBCF5A98CECFF2
:100620005B98D1CF5C98D4CF10926001D6CFCF9396
:10063000DF93CDB7DEB72E970FB6F894DEBF0FBEAF
:10064000CDBF789484B5836084BD85B5836085BD56
:1006500080916E00816080936E0082E080938100C3
:100660008091810081608093810080918000816011
:10067000809380008091B10084608093B10080916C
:10068000B00081608093B00087E880937A00109278
:10069000C1007BDEFC019C01205F3F4F1192E217FD
:1006A000F307E1F72DE2DC0150962C938FB7F89415
:1006B00020E631E0E0E5F1E02E173F0711F011925E
:1006C000FBCF2C982B982A98299828985F985E98A9
:1006D0005D98419842984398449845985A985B98F9
:1006E0005C988FBF8FB7F894249A239A229A219A04
:1006F000209A579A569A559A399A3A9A3B9A3C9A1E
:100700003D9A529A539A549A8FBF1092800089E072
:10071000809381008FE891E0909389008093880016
:1007200080916F00826080936F0010926001E09171
:100730006701F0916801A081B1818C919681892B2C
:100740008C93A281B3819C918681809589238C931F
:100750001782118A108AE0916901F0916A01A081E3
:10076000B1818C919681892B8C93A281B3819C91CC
:100770008681809589238C931782118A108A81E063
:1007800080937901FE013796FD87EC8742E0342E95
:1007900000916B0110916C01D8018C9167DC20E015
:1007A000823391057CF09C01275D31402F34310567
:1007B00040F08158924022E08F34910518F023E0F8
:1007C00001C021E0F80181819281F92FFF70DF2EB5
:1007D000AC015F7CD80112965C934E931197E22E88
:1007E000220FFF08FE151F0409F48AC0907CFE2C1E
:1007F000EE24E82AF92A1296FC92EE92119773DC05
:10080000F80163837483858396836DDC6B017C01BF
:1008100000917801809177011FEF823021F011E083
:10082000813009F010E080916D0190916E0167DCDC
:100830008E8780917601882309F4A2C054DC409011
:100840007201509073016090740170907501641989
:1008500075098609970925E0EC85FD8511922A9591
:10086000E9F72FE6822E21E0922E9A8289826B830D
:100870007C838D839E83188788DDDC0150968C9164
:10088000898781E0033009F080E08A87912C80918C
:100890007101981608F074C09F8277DDBFE0B9152A
:1008A00008F46CC0FC01E90DF11D80818B876DDDC2
:1008B0003C01E0916F01F0917001CE010196099524
:1008C000882EEFE0E915D0F0092D10E0F301E00FDC
:1008D000F11F80835ADDDC0150964C9120E04423C7
:1008E00049F0282D30E0D9019FD2242F30E050E08C
:1008F00040E078D2F801E05BFE4F20839394C7CFAD
:10090000F2DBD80113964D905D906D907C90169718
:1009100064197509860997096F307105810591057C
:1009200008F473CF11968D919C91282F2F70D216B9
:1009300009F46BCFB0E12B9FA00111248827842BF1
:10094000952BE82AF92AF801F282E182233071F42A
:10095000F3E0DF1609F459CF2FECF2226894F4F893
:10096000D8011296FC92EE9211974FCFB3E0DB12B2
:100970004CCFEFECFE226894F5F8F2CF80E096CFF2
:1009800080917B0190917C01A0917D01B0917E01CD
:1009900026013701481A590A6A0A7B0A80917801B0
:1009A000813009F070C0809176018111E0C08E84A1
:1009B000B5EF4B16B1E05B066104710408F499C110
:1009C000882039F08091790120917A0130E08111FD
:1009D00002C030E020E080916501909166018217AD
:1009E000930731F14091610150916201609163017F
:1009F0007091640146015701841A950AA60AB70A44
:100A0000B501A401443651056105710588F0C09215
:100A10006101D0926201E0926301F0926401821759
:100A2000930708F0FFC001969093660180936501DB
:100A300090E5892E91E0992E10E000E0002319F056
:100A40000C3009F0F1C0A1DC20906501800F911FEE
:100A5000DC012C929ADCFC01408920E0442349F01F
:100A6000222D30E0D901E0D1242F30E050E040E0E9
:100A7000B9D1D4012C930F5F1F4FBFEF8B1A9B0A84
:100A800000311105D9F68E84882009F470C0809158
:100A9000760181116CC080916701909168017DDBC6
:100AA0008091690190916A0178DB1DDB4B015C014B
:100AB00080917F0190918001A0918101B09182018C
:100AC000A5019401281B390B4A0B5B0BDA01C90104
:100AD00084369105A105B10508F449C080918301D0
:100AE0000091670110916801811104C000916901B2
:100AF00010916A01D80117968C911797811137C010
:100B000017968C911797811132C0E1E01796EC93FC
:100B1000C5DAD80118966D937D938D939C931B979E
:100B2000E2DAF801628B738B848B958B0190F081F4
:100B3000E02D8081D80116969C911697892B808391
:100B40001296ED91FC911397808116969C91892BBA
:100B5000808380927F0190928001A0928101B09267
:100B6000820180918301B1E08B2780938301809182
:100B70006D0190916E01C3DA882349F1809176016D
:100B8000811125C0E0916B01F0916C0181818F7022
:100B900009F453C0813009F47AC0E0916701F09103
:100BA0006801808991892781211104C00197CB9721
:100BB00008F443C0E0916901F0916A01808991894C
:100BC0002781211104C00197CB9708F460C0809160
:100BD0007801811149C0E1E14E16E7E25E06610449
:100BE000710408F441C0F3E0F093780183E1882EAA
:100BF00081E0982E9092700180926F0174DA609378
:100C0000720170937301809374019093750199241C
:100C100093949092760180E090E0892B09F4B8CD0E
:100C2000EFD9B4CD019700CFB0DB800F911FFC014D
:100C30001082ABDBD4011C921ECF81E0AE84AA20CF
:100C400099F010917801111124C029E8421623E18E
:100C500052066104710440F0C0927B01D0927C0185
:100C6000E0927D01F0927E01809176018111D3CFD7
:100C700080917801823061F510927801C0927B01F9
:100C8000D0927C01E0927D01F0927E01C4CF82E09F
:100C9000D5CF113049F738EB43163BE053066104DA
:100CA000710410F3809377013092780143E151E0B1
:100CB0005093700140936F0116DA60937201709344
:100CC0007301809374019093750110937601A3CF03
:100CD000833009F0A0CF51E050937801C0927B019E
:100CE000D0927C01E0927D01F0927E01109277011A
:100CF00092CF882009F43BCFCECECF93DF93AAE3E7
:100D0000B1E087E290E011969C938E9388E290E0A8
:100D100013969C938E93129786E290E015969C937F
:100D20008E93149741E016964C93169717961C9243
:100D30001797C4E2D1E084E290E09983888385E24A
:100D400090E09B838A8383E290E09D838C8380E2A2
:100D50008E831F822DE131E086E0F901808388E8EF
:100D600098E092838183138214821582168289E12E
:100D700091E057E0FC01508364E670E07283618388
:100D80001382E7E6F1E0D183C083B383A283358386
:100D900024839783868380E1828713861486158651
:100DA00016861786108A418B128A8CE0838B148AF0
:100DB000158A168A178A108E118E128E138E148E33
:100DC000DF91CF910895DB018F939F9339D0BF912D
:100DD000AF91A29F800D911DA39F900DB29F900D8A
:100DE00011240895A1E21A2EAA1BBB1BFD010DC000
:100DF000AA1FBB1FEE1FFF1FA217B307E407F507CB
:100E000020F0A21BB30BE40BF50B661F771F881FA6
:100E1000991F1A9469F760957095809590959B013C
:100E2000AC01BD01CF010895A29FB001B39FC001E5
:100E3000A39F01D0B29F700D811D1124911D0895B3
:100E4000F3DFA59F900DB49F900DA49F800D911D81
:100E500011240895B7FFF4CFF3DF821B930B08959D
:100E6000EE0FFF1F0590F491E02D0994F894FFCF49
:00000001FF
