:100000003BC05FC05EC09CC371C35BC05AC022C30B
:1000100058C057C056C055C054C053C052C051C03C
:1000200078C24FC0E5C2BFC24CC04BC04AC049C035
:1000300048C047C000000000240027002A00010239
:100040000408102040800102040810200102040866
:10005000102040804000000000250028002B0004F4
:10006000040404040404040202020202020303035F
:10007000030303020203CA0311241FBECFEFD4E01F
:10008000DEBFCDBF11E0A0E0B1E0E6EBFDE002C0D5
:1000900005900D92A232B107D9F722E0A2E2B1E0B9
:1000A00001C01D92AB36B207E1F710E0CCE3D0E01F
:1000B00003C02197FE016BD6CB33D107D1F7E1D333
:1000C00078C69ECF3FB7F8948091850190918601C4
:1000D000A0918701B091880126B5A89B05C02F3F4C
:1000E00019F00196A11DB11D3FBFBA2FA92F982F5E
:1000F0008827BC01CD01620F711D811D911D42E059
:10010000660F771F881F991F4A95D1F708952FB75B
:10011000F8946091810170918201809183019091A6
:1001200084012FBF08958F929F92AF92BF92CF927A
:10013000DF92EF92FF92CF93DF93EC01CA80DB80D6
:10014000EC80FD8020E4822E2FE1922EA12CB12C98
:10015000C701B601A5019401EED59B01AC01AFEF3B
:10016000B0E00BD6A5019401E6D52436A8F53FEF03
:10017000239FC001112464E670E0C9D535E0639F78
:10018000B001112485E0870F98859923D1F098E577
:10019000C91692E0D906E104F10460F598E5892ECC
:1001A00092E0992EA12CB12CA50194012C193D09A6
:1001B0004E095F09A82FB0E0E0D5A5019401BBD599
:1001C000822FDF91CF91FF90EF90DF90CF90BF9083
:1001D000AF909F908F9008958CE9820F6FEF8332DC
:1001E00068F2822F80952FEF829FC001112468E76B
:1001F00070E0C3CF80E0E5CFAF92BF92CF92DF92A5
:10020000EF92FF920F931F93CF93DF936C017B01CB
:100210008B01040F151FEB015E01AE18BF08C0175C
:10022000D10759F06991D601ED91FC910190F081CF
:10023000E02DC6010995892B79F7C501DF91CF9192
:100240001F910F91FF90EF90DF90CF90BF90AF90F4
:100250000895FC01538D448D252F30E0842F90E0CC
:10026000821B930B541710F0CF96089501970895B1
:10027000FC01918D828D981761F0A28DAE0FBF2F7A
:10028000B11D5D968C91928D9F5F9F73928F90E0D0
:1002900008958FEF9FEF0895FC01918D828D98173F
:1002A00031F0828DE80FF11D858D90E008958FEF7C
:1002B0009FEF0895FC01918D228D892F90E0805C45
:1002C0009F4F821B91098F739927089589E891E0C8
:1002D000F1DF21E0892B09F420E0822F089580E0EE
:1002E00090E0892B19F0F2DF81118ACE0895FC018C
:1002F000A48DA80FB92FB11DA35ABF4F2C91848D87
:1003000090E001968F739927848FA689B7892C93E3
:10031000A089B1898C91837080648C93938D848D36
:10032000981306C00288F389E02D80818F7D808339
:100330000895EF92FF920F931F93CF93DF93EC01F9
:1003400081E0888F9B8D8C8D98131AC0E889F9897C
:10035000808185FF15C09FB7F894EE89FF8960837F
:10036000E889F98980818370806480839FBF81E000
:1003700090E0DF91CF911F910F91FF90EF90089542
:10038000F62E0B8D10E00F5F1F4F0F731127E02E1D
:100390008C8D8E110BC00FB607FCFACFE889F98956
:1003A000808185FFF5CFCE01A2DFF2CFEB8DEC0F80
:1003B000FD2FF11DE35AFF4FF0829FB7F8940B8F8A
:1003C000EA89FB8980818062D0CFCF93DF93EC01F3
:1003D000888D8823B1F0AA89BB89E889F9898C9135
:1003E00085FD03C0808186FD0CC00FB607FCF7CFEA
:1003F0008C9185FFF2CF808185FFEDCFCE0177DF35
:10040000EACFDF91CF9108958091770181110DC0DE
:100410001092720110927301109274011092750182
:100420001092760181E08093770182E291E0089555
:100430000F931F93CF93DF93EC01EC81FD818081BB
:100440009E8189239F81923071F4882339F03ADEAE
:100450006C877D878E879F8783E08F83DF91CF9125
:100460001F910F9108959F819330C1F78111F6CFAD
:1004700029DE0C851D852E853F85601B710B820B47
:10048000930B2AE330E040E050E055D4398B288BC1
:100490001F82E4CF0F931F93CF93DF93EC0112DE03
:1004A0002F812130E9F4088519852A853B85601B59
:1004B000710B820B930B6A3071058105910580F0F9
:1004C000EA81FB8190818E81809589238083E881F8
:1004D000F98190818E8180958923808382E08F834A
:1004E0008F81823088F013DE0A891B892C893D892F
:1004F000601B710B820B930B6F31710581059105A8
:1005000018F01F82198A188ADF91CF911F910F91DD
:1005100008951F920F920FB60F9211242F933F93BD
:100520008F939F93AF93BF938091810190918201AC
:10053000A0918301B09184013091800123E0230FC9
:100540002D3768F126E8230F0296A11DB11D2093D7
:1005500080018093810190938201A0938301B093E5
:1005600084018091850190918601A0918701B091CD
:1005700088010196A11DB11D80938501909386018C
:10058000A0938701B0938801BF91AF919F918F9104
:100590003F912F910F900FBE0F901F9018950196CD
:1005A000A11DB11DD4CF1F920F920FB60F9211242F
:1005B0002F933F934F935F936F937F938F939F936B
:1005C000AF93BF93EF93FF9389E891E090DEFF91A3
:1005D000EF91BF91AF919F918F917F916F915F91BB
:1005E0004F913F912F910F900FBE0F901F90189534
:1005F0001F920F920FB60F9211242F938F939F93F8
:10060000EF93FF93E0919901F0919A018081E0913D
:100610009F01F091A00182FD1BC090818091A201F9
:100620008F5F8F732091A301821741F0E091A201A7
:10063000F0E0E757FE4F958F8093A201FF91EF9175
:100640009F918F912F910F900FBE0F901F90189533
:100650008081F4CF1F920F920FB60F9211240F9347
:100660001F932F933F934F935F936F937F938F933A
:100670009F93AF93BF93CF93DF93EF93FF9310912B
:100680007F011F5F10937F01D0E0C0E005E0BCDE7A
:100690000C9FF0010D9FF00D1124E80FF91F8181CF
:1006A000A281B3811817E8F48C919481892B8C93E3
:1006B0002196C031D10559F7FF91EF91DF91CF918C
:1006C000BF91AF919F918F917F916F915F914F916A
:1006D0003F912F911F910F910F900FBE0F901F9080
:1006E00018959C91848180958923E1CF1F920F9268
:1006F0000FB60F9211242F933F934F935F936F93F5
:100700007F938F939F93AF93BF93EF93FF938091CA
:1007100046028250823018F48FE392E089DEFF9126
:10072000EF91BF91AF919F918F917F916F915F9169
:100730004F913F912F910F900FBE0F901F901895E2
:100740001F920F920FB60F9211242F933F934F9346
:100750005F936F937F938F939F93AF93BF93EF9329
:10076000FF9380915C028250823018F485E592E01C
:100770005FDEFF91EF91BF91AF919F918F917F913C
:100780006F915F914F913F912F910F900FBE0F90FE
:100790001F901895CF93DF93E9E8F1E0138212825E
:1007A00088EE93E0A0E0B0E084839583A683B783CE
:1007B00084E191E09183808385EC90E09587848744
:1007C00084EC90E09787868780EC90E0918B808B1B
:1007D00081EC90E0938B828B82EC90E0958B848B04
:1007E00086EC90E0978B868B118E128E138E148E72
:1007F000A5E5B2E084E290E011969C938E9385E2A9
:1008000090E013969C938E93129783E290E0159656
:100810009C938E93149780E216968C931697179656
:100820001C921797CFE3D2E087E290E09983888308
:1008300088E290E09B838A8386E290E09D838C83AC
:1008400081E08E831F82E6E2F2E0D183C083B3832E
:10085000A28390E1968317821086118612861386F2
:1008600014868587168682E38787108A118A128A02
:10087000138A148A158A168A178A108EDF91CF91EF
:100880000895CF93DF93CDB7DEB729970FB6F894CD
:10089000DEBF0FBECDBF789484B5836084BD85B5BF
:1008A000836085BD80916E00816080936E0092E0D0
:1008B000909381008091810081608093810080917C
:1008C00080008160809380008091B100846080937B
:1008D000B1008091B00081608093B00087E8809380
:1008E0007A001092C100E0919901F0919A019083F1
:1008F000E0919501F09196011082E0919701F091BD
:1009000098018FEC80831092A101E0919D01F091FC
:100910009E0186E08083E0919B01F0919C018081A3
:1009200088698083E0919B01F0919C0180818F7D9B
:1009300080836ADD40E051E0DC0180E191E0FA0172
:100940002191AF012C9311961C92119730E0F9017F
:10095000E25CFF4F6491215A3F4FF9012491222319
:10096000A1F030E0220F331FF901EC5CFF4F05913D
:100970001491F901EB5AFF4F259134912FB7F89458
:10098000F8013081632B60832FBF2C9130E0F90197
:10099000E15AFF4FE491F0E0EE0FFF1FEB5AFF4FDB
:1009A0006591749113967C936E931297F901E25CB2
:1009B000FF4F349114963C931497FB012081E32F51
:1009C000E0952E23FB01208315968417950709F0E7
:1009D000B6CFF8941092B0001092B1001092B2000D
:1009E0008091B00082608093B0008091B1008260FD
:1009F0008093B1008FE78093B300B99A8091700023
:100A00008260809370007894E0912602F091270232
:100A1000A081B1818C919681892B8C93A281B38125
:100A20009C918681809589238C931782118A108AE4
:100A3000E0912802F0912902A081B1818C919681E8
:100A4000892B8C93A281B3819C9186818095892387
:100A50008C931782118A108A11E01093340210933C
:100A6000320282E08093330283E990E090932B027C
:100A700080932A024CDB60932D0270932E028093A8
:100A80002F029093300210933102809168008360AE
:100A90008093680080916B00806280936B008091EE
:100AA0006C00816080936C00FF24F39423E9C22ED4
:100AB00020E0D22E82E0382E93E0E92E28DB2B01B5
:100AC0003C018091260290912702E4DC809128026B
:100AD00090912902DFDC8091320210E0823009F42B
:100AE0001FEF809131028823C9F1009133020FDB9F
:100AF00080902D0290902E02A0902F02B090300294
:100B0000681979098A099B091F822AE232E03A832F
:100B100029836B837C838D839E83188781E00330D8
:100B200009F080E08987212C80912C022816B0F4EE
:100B30002F826ADC8C01E0912A02F0912B02CE0117
:100B4000019609953FE0321538F0F80145E0429DE5
:100B5000E00DF11D112481832394E6CFD8DA4B01F7
:100B60005C0180913A0290913B02A0913C02B091CD
:100B70003D02A5019401281B390B4A0B5B0BDA01DE
:100B8000C901CC97A105B10508F446C080913E0289
:100B90000091260210912702811104C000912802C1
:100BA00010912902D80117968C911797811134C0A2
:100BB00017968C91179781112FC01796FC9282DAA5
:100BC000F8016087718782879387A1DAD8015296EE
:100BD0006D937D938D939C935597ED91FC91119717
:100BE000808116969C911697892B80831296ED91A1
:100BF000FC911397808116969C91892B808380921B
:100C00003A0290923B02A0923C02B0923D02809147
:100C10003E028F2580933E0210913302111133C0A2
:100C20008091360290913702A0913802B09139023A
:100C3000A3019201281B390B4A0B5B0BDA01C90196
:100C400089399A43A105B105F0F010923202E09281
:100C50003302D0922B02C0922A0259DA60932D02FD
:100C600070932E0280932F0290933002F092310203
:100C700040E050E0452B09F421CF28DB882309F41C
:100C800019CFBED917CFE0912602F09127028089B3
:100C900091892781211103C001978797F8F0E0918E
:100CA0002802F0912902808991892781211103C0AE
:100CB0000197879750F1809131028111D9CF81E05E
:100CC000123009F480E08093330240923602509251
:100CD00037026092380270923902CACF81E0113037
:100CE00051F78093320230923302D0922B02C0929D
:100CF0002A020DDA60932D0270932E0280932F0248
:100D00009093300210933102B3CF82E0E8CFAA1B58
:100D1000BB1B51E107C0AA1FBB1FA617B70710F0E6
:100D2000A61BB70B881F991F5A95A9F78095909518
:100D3000BC01CD010895A1E21A2EAA1BBB1BFD0127
:100D40000DC0AA1FBB1FEE1FFF1FA217B307E407AA
:100D5000F50720F0A21BB30BE40BF50B661F771F02
:100D6000881F991F1A9469F76095709580959095E2
:100D70009B01AC01BD01CF0108950FD0A59F900D3F
:100D8000B49F900DA49F800D911D11240895EE0F26
:100D9000FF1F0590F491E02D0994A29FB001B39F2D
:100DA000C001A39F01D0B29F700D811D1124911D20
:060DB0000895F894FFCF46
:100DB600040302131211100F05060708090A0B0C8B
:100DC600000000009901FC002901E5015A013801E3
:020DD6004C01CE
:00000001FF
