:100000001AC03EC03DC038C361C33AC039C023C323
:1000100037C036C035C084C333C032C031C030C0F1
:1000200079C22EC0E6C2C0C22BC02AC029C028C0D7
:1000300027C026C0230411241FBECFEFD4E0DEBFAB
:10004000CDBF11E0A0E0B1E0EEEAF0E102C0059022
:100050000D92A231B107D9F722E0A2E1B1E001C0CF
:100060001D92A433B207E1F710E0CBE1D0E003C06A
:100070002197FE0108D8CA31D107D1F775D415C828
:10008000BFCF883020F08D3008F48DE08E5087701F
:10009000806480937C0080917A00806480937A00F1
:1000A00080917A0086FDFCCF809178009091790054
:1000B00008953FB7F89480913F0190914001A0913D
:1000C0004101B091420126B5A89B05C02F3F19F010
:1000D0000196A11DB11D3FBFBA2FA92F982F8827C8
:1000E000BC01CD01620F711D811D911D42E0660FA3
:1000F000771F881F991F4A95D1F708952FB7F89455
:1001000060913B0170913C0180913D0190913E01D5
:100110002FBF0895AF92BF92CF92DF92EF92FF92DE
:100120000F931F93CF93DF936C017B018B01040F1F
:10013000151FEB015E01AE18BF08C017D10759F0BB
:100140006991D601ED91FC910190F081E02DC601FD
:100150000995892B79F7C501DF91CF911F910F91F7
:10016000FF90EF90DF90CF90BF90AF900895FC018B
:10017000538D448D252F30E0842F90E0821B930B0C
:10018000541710F0CF96089501970895FC01918DB2
:10019000828D981761F0A28DAE0FBF2FB11D5D96B5
:1001A0008C91928D9F5F9F73928F90E008958FEF57
:1001B0009FEF0895FC01918D828D981731F0828D0B
:1001C000E80FF11D858D90E008958FEF9FEF089562
:1001D000FC01918D228D892F90E0805C9F4F821BC6
:1001E00091098F739927089583E491E0F1DF21E06D
:1001F000892B09F420E0822F089580E090E0892B7C
:1002000019F0F2DF8111FCCE0895FC01A48DA80F36
:10021000B92FB11DA35ABF4F2C91848D90E0019648
:100220008F739927848FA689B7892C93A089B18968
:100230008C91837080648C93938D848D981306C009
:100240000288F389E02D80818F7D80830895EF926D
:10025000FF920F931F93CF93DF93EC0181E0888F80
:100260009B8D8C8D98131AC0E889F989808185FF50
:1002700015C09FB7F894EE89FF896083E889F989F2
:1002800080818370806480839FBF81E090E0DF91F4
:10029000CF911F910F91FF90EF900895F62E0B8D47
:1002A00010E00F5F1F4F0F731127E02E8C8D8E1102
:1002B0000BC00FB607FCFACFE889F989808185FF6A
:1002C000F5CFCE01A2DFF2CFEB8DEC0FFD2FF11DAC
:1002D000E35AFF4FF0829FB7F8940B8FEA89FB89AE
:1002E00080818062D0CFCF93DF93EC01888D88230B
:1002F000B1F0AA89BB89E889F9898C9185FD03C091
:10030000808186FD0CC00FB607FCF7CF8C9185FF6E
:10031000F2CF808185FFEDCFCE0177DFEACFDF918D
:10032000CF910895CF93DF93EC018881AADE4B81B2
:1003300029813A81442359F0A901415F5F4F481751
:10034000590728F41B828B81DF91CF9108950F9676
:1003500028173907C0F381E08B83F5CF0F931F93E4
:10036000CF93DF93EC01EC81FD8180819E81892315
:100370009F81923071F4882339F09BDE6C877D87F2
:100380008E879F8783E08F83DF91CF911F910F919D
:1003900008959F819330C1F78111F6CF8ADE0C85D5
:1003A0001D852E853F85601B710B820B930B2AE305
:1003B00030E040E050E03BD6398B288B1F82E4CF01
:1003C0000F931F93CF93DF93EC0173DE2F812130C6
:1003D00021F5088519852A853B85601B710B820BE9
:1003E000930B6A30710581059105B8F0EA81FB81B4
:1003F00090818E81809589238083E881F981908125
:100400008E81809589238083EA81FB8190818E8112
:1004100080958923808382E08F838F81823088F06A
:100420006DDE0A891B892C893D89601B710B820B4B
:10043000930B6F3171058105910518F01F82198AA0
:10044000188ADF91CF911F910F9108950F931F93F9
:10045000CF93DF93FC018681028113812481358152
:100460008D3068F0083213422105310530F08F30AD
:1004700021F40190F081E02D1782C0E016C0978131
:100480009F3F19F49CE0981B892FA4EFB1E08A9F4D
:10049000B0018B9F700D1124CB01B0E0A0E00817D4
:1004A00019072A073B0738F4C2858C2FDF91CF91BB
:1004B0001F910F910895A9019801281B390B4A0B30
:1004C0005B0B8185283B9BE0390741055105F0F422
:1004D000C085882361F0AC2FB0E0CBD528EB3BE0A2
:1004E00040E050E0A4D52C1740F6C21BDECFD285E9
:1004F000DC17D8F6CD1BAC2FB0E0BBD528EB3BE02A
:1005000040E050E094D5CD2FC20FCFCF8111B5CFB1
:10051000C085CBCF1F920F920FB60F9211242F934D
:100520003F938F939F93AF93BF9380913B019091A3
:100530003C01A0913D01B0913E0130913A0123E090
:10054000230F2D3768F126E8230F0296A11DB11D58
:1005500020933A0180933B0190933C01A0933D018D
:10056000B0933E0180913F0190914001A0914101E3
:10057000B09142010196A11DB11D80933F0190935E
:100580004001A0934101B0934201BF91AF919F916F
:100590008F913F912F910F900FBE0F901F90189544
:1005A0000196A11DB11DD4CF1F920F920FB60F92CD
:1005B00011242F933F934F935F936F937F938F9368
:1005C0009F93AF93BF93EF93FF9383E491E01DDE7E
:1005D000FF91EF91BF91AF919F918F917F916F911B
:1005E0005F914F913F912F910F900FBE0F901F90F1
:1005F00018951F920F920FB60F9211242F938F937D
:100600009F93EF93FF93E0915301F0915401808108
:10061000E0915901F0915A0182FD1BC090818091B7
:100620005C018F5F8F7320915D01821741F0E09133
:100630005C01F0E0ED5BFE4F958F80935C01FF91D4
:10064000EF919F918F912F910F900FBE0F901F9060
:1006500018958081F4CF1F920F920FB60F9211243C
:100660008F93809112018F5F809312018F910F9071
:100670000FBE0F901F9018951F920F920FB60F92FA
:1006800011242F933F934F935F936F937F938F9397
:100690009F93AF93BF93EF93FF9380910F0282508C
:1006A000823018F488E092E059DEFF91EF91BF911B
:1006B000AF919F918F917F916F915F914F913F91FA
:1006C0002F910F900FBE0F901F9018951F920F92B1
:1006D0000FB60F9211242F933F934F935F936F9315
:1006E0007F938F939F93AF93BF93EF93FF938091EB
:1006F00025028250823018F48EE192E02FDEFF91C5
:10070000EF91BF91AF919F918F917F916F915F9189
:100710004F913F912F910F900FBE0F901F90189502
:100720001F920F920FB60F9211248F939F9378947C
:100730008091230190912201891708F061C02C9AC1
:1007400090912101891708F05DC02B9A90912001AA
:10075000891708F059C02A9A90911F01891708F04B
:1007600055C0299A90911E01891708F051C0289A06
:1007700090911D01891708F04DC05F9A90911C015E
:10078000891708F049C05E9A90911B01891708F0FB
:1007900045C05D9A90911A01891708F041C0419AAD
:1007A00090911901891708F03DC0429A9091180163
:1007B0008917D0F5439A909117018917B8F5449A93
:1007C000909116018917A0F5459A90911501891706
:1007D00088F55A9A90911401891770F55B9A909157
:1007E0001301891758F55C9A8F5F853649F180931C
:1007F00023019F918F910F900FBE0F901F9018951E
:100800002C989ECF2B98A2CF2A98A6CF2998AACF12
:100810002898AECF5F98B2CF5E98B6CF5D98BACF2A
:100820004198BECF4298C2CF4398C5CF4498C8CF15
:100830004598CBCF5A98CECF5B98D1CF5C98D4CF88
:1008400010922301D6CFCF93DF93E3E4F1E013823C
:10085000128288EE93E0A0E0B0E084839583A683C3
:10086000B78384E091E09183808385EC90E0958765
:10087000848784EC90E09787868780EC90E0918B6A
:10088000808B81EC90E0938B828B82EC90E0958B57
:10089000848B86EC90E0978B868B118E128E138E54
:1008A000148EAEE1B2E087E290E011969C938E93B5
:1008B00088E290E013969C938E93129786E290E0E4
:1008C00015969C938E93149741E016964C93169729
:1008D00017961C921797C8E0D2E084E290E09983C3
:1008E000888385E290E09B838A8383E290E09D8306
:1008F0008C8380E28E831F8221E032E086E0F90162
:10090000808388E898E09283818313821482158221
:1009100016828DEF91E057E0FC01508364E670E0B1
:10092000728361831382E0EEF1E0D183C083B383ED
:10093000A283358324839783868380E1828713860D
:100940001486158616861786108A418B128A438B69
:10095000148A158A168A178A108E118E128E138E9B
:10096000148EDF91CF910895CF93DF93CDB7DEB78B
:1009700061970FB6F894DEBF0FBECDBF789484B5F3
:10098000836084BD85B5836085BD80916E00816084
:1009900080936E0092E0909381008091810081604D
:1009A000809381008091800081608093800080919D
:1009B000B10084608093B1008091B0008160809329
:1009C000B00087E880937A001092C100E091530153
:1009D000F09154019083E0914F01F0915001108209
:1009E000E0915101F09152018FEC808310925B01F4
:1009F000E0915701F091580186E08083E091550124
:100A0000F0915601808188698083E0915501F091D1
:100A1000560180818F7D80838FB7F894E3E1F1E008
:100A200023E231E02E173F0711F01192FBCF2C98F3
:100A30002B982A98299828985F985E985D984198F5
:100A400042984398449845985A985B985C988FBF11
:100A50008FB7F894249A239A229A219A209A579A27
:100A6000569A559A399A3A9A3B9A3C9A3D9A529A92
:100A7000539A549A8FBF1092800089E0809381002E
:100A80008BE891E0909389008093880080916F00BB
:100A9000826080936F0010922301E091E001F09159
:100AA000E101A081B1818C919681892B8C93A281E7
:100AB000B3819C918681809589238C931782118ABA
:100AC000108AE091E201F091E301A081B1818C9163
:100AD0009681892B8C93A281B3819C91868180958C
:100AE00089238C931782118A108A81E08093F20106
:100AF0008091680083608093680080916B008062C1
:100B000080936B0080916C00816080936C009E01EB
:100B1000295F3F4F3D872C8736E2232E32E0332E6C
:100B2000AA24A3940091E4011091E501D8018C91CD
:100B3000A8DA20E0823391057CF09C01275D3140EA
:100B40002F34310540F08158924022E08F349105D6
:100B500018F023E001C021E0F80181819281F92F92
:100B6000FF70DF2EAC015F7CD80112965C934E9330
:100B70001197E22E220FFF08FE151F0409F470C022
:100B8000907CFE2CEE24E82AF92A1296FC92EE9232
:100B90001197B4DAF8016383748385839683AEDAA0
:100BA0006B017C010091F1018091F0011FEF823017
:100BB00021F011E0813009F010E08091E601909180
:100BC000E701B0DBB82E8091EF01882309F486C0DD
:100BD00095DA4090EB015090EC016090ED0170903F
:100BE000EE01641975098609970925E0EC85FD85F4
:100BF00011922A95E9F72EE1298728EE31E03A8310
:100C000029836B837C838D839E83188781E00330E7
:100C100009F080E08A8710E08091EA01181708F057
:100C20005DC01F8380E0103128F4E12FF0E0EC5D1F
:100C3000FE4F80818B87E091E801F091E901CE01C0
:100C400001960995103150F4212F30E0F901EC5D47
:100C5000FE4F80832D5E3E4FD9018C931F5FDCCF0A
:100C60004DDAD80113964D905D906D907C9016975B
:100C700064197509860997096F3071058105910519
:100C800008F48DCF11968D919C91282F2F70D2163C
:100C900009F485CFB0E12B9FA00111248827842B74
:100CA000952BE82AF92AF801F282E182233071F4C7
:100CB000F3E0DF1609F473CF2FECF2226894F4F816
:100CC000D8011296FC92EE92119769CFB3E0DB1235
:100CD00066CFEFECFE226894F5F8F2CF8091F40134
:100CE0009091F501A091F601B091F701260137012D
:100CF000481A590A6A0A7B0A8091F101813009F089
:100D000058C08091EF01811134C1B5EF4B16B1E0AD
:100D10005B066104710408F42AC1BB2039F080919C
:100D2000F2012091F30130E0811102C030E020E0B7
:100D3000E0913801F0913901E217F30729F1409170
:100D40003401509135016091360170913701D7011E
:100D5000C601841B950BA60BB70B84369105A10524
:100D6000B10590F0C0923401D0923501E092360185
:100D7000F0923701CF01E217F30708F0BBC00196EC
:100D800090933901809338012091380190E080E000
:100D9000DC01AC5DBE4FFC01ED5EFE4F882319F017
:100DA0008C3009F0A9C02C932083019680319105E5
:100DB00079F7BB2009F475C08091EF01811171C0F2
:100DC0008091E0019091E101FBDA8091E201909144
:100DD000E301F6DA93D96E877F87888B998B8091B0
:100DE000F8019091F901A091FA01B091FB012E85D3
:100DF0003F8548895989281B390B4A0B5B0BDA015F
:100E0000C90184369105A105B10508F44AC0809155
:100E1000FC010091E0011091E101811104C00091F9
:100E2000E2011091E301D80117968C911797811177
:100E300038C017968C911797811133C01796AC92D2
:100E400038D9F801608771878287938757D9D8018D
:100E500052966D937D938D939C935597ED91FC9154
:100E60001197808116969C911697892B80831296F4
:100E7000ED91FC911397808116969C91892B80832C
:100E80002E853F85488959892093F8013093F901CF
:100E90004093FA015093FB018091FC018A258093D5
:100EA000FC018091F101811164C031E1431637E208
:100EB00053066104710408F45CC043E04093F101FF
:100EC0003092E9012092E80119D96093EB01709307
:100ED000EC018093ED019093EE01A092EF0180E090
:100EE00090E0892B09F41ECE7FD9882309F418CE0F
:100EF00087D816CE019744CF1C92108256CF81E03E
:100F000073C0113009F083C0BB2009F480C068EBC6
:100F100046166BE056066104710408F478C08093AD
:100F2000F00172E07093F1013092E9012092E80142
:100F3000E5D86093EB017093EC018093ED01909301
:100F4000EE011093EF01CBCF992309F460C0C7CF16
:100F5000833029F6A092F101C092F401D092F501FC
:100F6000E092F601F092F7011092F001B8CFB110C3
:100F700027CF8091E6019091E701D4D99091EF01BC
:100F8000882311F39111E0CFE091E401F091E501A4
:100F900081819281892E82949FE08922912C9401F3
:100FA000237033272130310529F48F7009F4A7CF3E
:100FB0008130C9F0E091E001F091E10180899189EF
:100FC0002781211104C001978C9708F498CFE091F4
:100FD000E201F091E301808991892781211117C0F5
:100FE00001978C97A0F482E01091F101111189CF43
:100FF00059E8451653E155066104710440F0C0926A
:10100000F401D092F501E092F601F092F70180919F
:10101000F101823009F09CCF1092F101C092F401ED
:10102000D092F501E092F601F092F70158CFA1E2DB
:101030001A2EAA1BBB1BFD010DC0AA1FBB1FEE1F52
:10104000FF1FA217B307E407F50720F0A21BB30B9D
:10105000E40BF50B661F771F881F991F1A9469F719
:1010600060957095809590959B01AC01BD01CF0175
:1010700008950FD0A59F900DB49F900DA49F800D53
:10108000911D11240895EE0FFF1F0590F491E02D9E
:101090000994A29FB001B39FC001A39F01D0B29F4A
:0E10A000700D811D1124911D0895F894FFCF4D
:1010AE000000000027018A00B7007301E800C600A7
:0210BE00DA0056
:00000001FF
