:1000000047C06BC06AC081C356C367C066C065C0C5
:1000100064C063C062C061C060C05FC05EC05DC0DC
:10002000A9C25BC016C3F0C258C057C056C055C065
:1000300054C053C00000000900030200000405087A
:10004000000000000000000000000000000000258B
:100050000028002B0000000000240027002A0004D4
:10006000040404040404040202020202020303035F
:10007000030303020203010204081020408001026E
:100080000408102001020408102040804000AF0343
:1000900011241FBECFEFD4E0DEBFCDBF11E0A0E042
:1000A000B1E0EEE8FEE002C005900D92AE34B1077B
:1000B000D9F722E0AEE4B1E001C01D92A03AB20748
:1000C000E1F710E0C8E4D0E003C02197FE01D7D6E5
:1000D000C734D107D1F7DBD3D8C692CF90E0FC016B
:1000E000EA58FF4F2491815A9F4FFC018491882345
:1000F00099F090E0880F991FFC01EB5AFF4FA591F2
:10010000B491FC01E55BFF4F859194918FB7F89412
:10011000EC91E22BEC938FBF089590E0FC01EC5C36
:10012000FF4F2491FC01EA58FF4F3491FC01E15A42
:10013000FF4FE491EE23C9F0222339F0243001F17E
:10014000A8F4223069F1233079F1F0E0EE0FFF1FBF
:10015000E55BFF4FA591B4918FB7F894EC916111D5
:1001600026C030953E233C938FBF0895283071F010
:10017000293091F0253049F7809180008F7D03C0B0
:10018000809180008F7780938000DFCF8091B000D6
:100190008F778093B000D9CF8091B0008F7DF9CF59
:1001A00084B58F7784BDD1CF84B58F7DFBCF3E2BB7
:1001B000DACF3FB7F8948091530190915401A09108
:1001C0005501B091560126B5A89B05C02F3F19F0E7
:1001D0000196A11DB11D3FBFBA2FA92F982F8827C7
:1001E000BC01CD01620F711D811D911D42E0660FA2
:1001F000771F881F991F4A95D1F708952FB7F89454
:1002000060914F0170915001809151019091520184
:100210002FBF0895AF92BF92CF92DF92EF92FF92DD
:100220000F931F93CF93DF936C017B018B01040F1E
:10023000151FEB015E01AE18BF08C017D10759F0BA
:100240006991D601ED91FC910190F081E02DC601FC
:100250000995892B79F7C501DF91CF911F910F91F6
:10026000FF90EF90DF90CF90BF90AF900895FC018A
:10027000538D448D252F30E0842F90E0821B930B0B
:10028000541710F0CF96089501970895FC01918DB1
:10029000828D981761F0A28DAE0FBF2FB11D5D96B4
:1002A0008C91928D9F5F9F73928F90E008958FEF56
:1002B0009FEF0895FC01918D828D981731F0828D0A
:1002C000E80FF11D858D90E008958FEF9FEF089561
:1002D000FC01918D228D892F90E0805C9F4F821BC5
:1002E00091098F739927089587E591E0F1DF21E067
:1002F000892B09F420E0822F089580E090E0892B7B
:1003000019F0F2DF81117CCE0895FC01A48DA80FB5
:10031000B92FB11DA35ABF4F2C91848D90E0019647
:100320008F739927848FA689B7892C93A089B18967
:100330008C91837080648C93938D848D981306C008
:100340000288F389E02D80818F7D80830895EF926C
:10035000FF920F931F93CF93DF93EC0181E0888F7F
:100360009B8D8C8D98131AC0E889F989808185FF4F
:1003700015C09FB7F894EE89FF896083E889F989F1
:1003800080818370806480839FBF81E090E0DF91F3
:10039000CF911F910F91FF90EF900895F62E0B8D46
:1003A00010E00F5F1F4F0F731127E02E8C8D8E1101
:1003B0000BC00FB607FCFACFE889F989808185FF69
:1003C000F5CFCE01A2DFF2CFEB8DEC0FFD2FF11DAB
:1003D000E35AFF4FF0829FB7F8940B8FEA89FB89AD
:1003E00080818062D0CFCF93DF93EC01888D88230A
:1003F000B1F0AA89BB89E889F9898C9185FD03C090
:10040000808186FD0CC00FB607FCF7CF8C9185FF6D
:10041000F2CF808185FFEDCFCE0177DFEACFDF918C
:10042000CF910895CF93DF93EC016A817B818C811A
:100430009D8124E130E040E050E0FFD488852F3FEB
:10044000310548F0E881F98111868150990B819539
:10045000DF91CF910895280F822FF9CF0F931F932B
:10046000CF93DF93EC01EC81FD8180819E81892314
:100470009F81923071F4882339F09BDE6C877D87F1
:100480008E879F8783E08F83DF91CF911F910F919C
:1004900008959F819330C1F78111F6CF8ADE0C85D4
:1004A0001D852E853F85601B710B820B930B2AE304
:1004B00030E040E050E0C1D4398B288B1F82E4CF7C
:1004C0000F931F93CF93DF93EC0173DE2F812130C5
:1004D000E9F4088519852A853B85601B710B820B21
:1004E000930B6A3071058105910580F0EA81FB81EB
:1004F00090818E81809589238083E881F981908124
:100500008E8180958923808382E08F838F818230E2
:1005100088F074DE0A891B892C893D89601B710B68
:10052000820B930B6F3171058105910518F01F82C5
:10053000198A188ADF91CF911F910F910895CF9357
:10054000DF93FC0101900020E9F73197AF01481BD0
:10055000590BBC0187E591E05DDEEC0142E050E023
:1005600062E271E087E591E055DE8C0F9D1FDF911F
:10057000CF9108951F920F920FB60F9211242F93CF
:100580003F938F939F93AF93BF9380914F0190912F
:100590005001A0915101B091520130914E0123E0E0
:1005A000230F2D3768F126E8230F0296A11DB11DF8
:1005B00020934E0180934F0190935001A0935101DD
:1005C000B09352018091530190915401A091550133
:1005D000B09156010196A11DB11D809353019093D6
:1005E0005401A0935501B0935601BF91AF919F91D3
:1005F0008F913F912F910F900FBE0F901F901895E4
:100600000196A11DB11DD4CF1F920F920FB60F926C
:1006100011242F933F934F935F936F937F938F9307
:100620009F93AF93BF93EF93FF9387E591E06DDEC8
:10063000FF91EF91BF91AF919F918F917F916F91BA
:100640005F914F913F912F910F900FBE0F901F9090
:1006500018951F920F920FB60F9211242F938F931C
:100660009F93EF93FF93E0916701F0916801808180
:10067000E0916D01F0916E0182FD1BC0908180912F
:1006800070018F5F8F7320917101821741F0E091AB
:100690007001F0E0E95AFE4F958F80937001FF9151
:1006A000EF919F918F912F910F900FBE0F901F9000
:1006B00018958081F4CF1F920F920FB60F921124DC
:1006C0002F933F934F935F936F937F938F939F935A
:1006D000AF93BF93EF93FF9380917B028250823060
:1006E00018F484E792E0BADEFF91EF91BF91AF91E9
:1006F0009F918F917F916F915F914F913F912F913A
:100700000F900FBE0F901F9018951F920F920FB66B
:100710000F9211242F933F934F935F936F937F9387
:100720008F939F93AF93BF93EF93FF938091910229
:100730008250823018F48AE892E090DEFF91EF91C7
:10074000BF91AF919F918F917F916F915F914F91E9
:100750003F912F910F900FBE0F901F901895E7E5D6
:10076000F1E01382128288EE93E0A0E0B0E084838F
:100770009583A683B78384E191E09183808385ECA0
:1007800090E09587848784EC90E09787868780EC5B
:1007900090E0918B808B81EC90E0938B828B82EC4C
:1007A00090E0958B848B86EC90E0978B868B118EF6
:1007B000128E138E148EEAE8F2E084E290E09183C8
:1007C000808385E290E09383828383E290E0958347
:1007D000848380E286831782A4E7B2E087E290E018
:1007E00011969C938E9388E290E013969C938E933F
:1007F000129786E290E015969C938E93149781E071
:1008000016968C93169717961C921797109254026F
:1008100010925502109256021092570210925802EE
:10082000B0935A02A0935902F0935C02E0935B02EA
:1008300024EF31E030935E0220935D0290E19093CB
:10084000610210926202109263021092640210928E
:1008500065021092660210926702809368021092FD
:10086000690282E380936A0210926B0210926C021A
:1008700010926D0210926E0210926F02109270022E
:100880001092710210927202109273020895CF9327
:10089000DF93CDB7DEB729970FB6F894DEBF0FBE52
:1008A000CDBF789484B5836084BD85B5836085BDF4
:1008B00080916E00816080936E0092E09093810041
:1008C00080918100816080938100809180008160AF
:1008D000809380008091B10084608093B10080910A
:1008E000B00081608093B00087E880937A00109216
:1008F000C100E0916701F09168019083E09163018C
:10090000F09164011082E0916501F09166018FEC35
:10091000808310926F01E0916B01F0916C0186E091
:100920008083E0916901F0916A0180818869808308
:10093000E0916901F0916A0180818F7D808370E090
:10094000E72E71E0F72EE0E1CE2EE1E0DE2EF4EFAF
:10095000AF2EF1E0BF2E01E0D7018D917D01F501B1
:1009600080831182BBDBD5011C91133019F41296E0
:100970000C9321C1153009F424C1163009F419C1B2
:10098000193009F41EC11A3009F413C11B3009F4DF
:1009900018C1F5011282812F90E0FC01E15AFF4F4E
:1009A000E491F0E0EE0FFF1FE55BFF4FA591B491DE
:1009B000F501B483A383FC01EA58FF4F9491F5013C
:1009C00095838C91E92FE095E823EC93B6E0AB0E8C
:1009D000B11CCE14DF0409F0BFCFEBDB60935502EE
:1009E000709356028093570290935802E0915902F7
:1009F000F0915A02A081B1818C919681892B8C93C0
:100A0000A281B3819C918681809589238C931782E2
:100A1000118A108AE0915B02F0915C02A081B181A1
:100A20008C919681892B8C93A281B3819C91868134
:100A3000809589238C931782118A108A81E0809394
:100A400069028091680083608093680080916B00E8
:100A5000806280936B0080916C00816080936C0059
:100A60009924939426E0622E30E0C32E30E0D32EFA
:100A70004DE5A42E42E0B42E52E1E52E52E0F52ED3
:100A800082E0882E93E0792E8091590290915A024B
:100A900017DD80915B0290915C0212DD109168027B
:100AA00088DB2090550230905602409057025090BB
:100AB0005802AB01421953094031510540F1D201AE
:100AC000C1014096A11DB11D80935502909356021D
:100AD000A0935702B0935802809154028F5F809385
:100AE0005402E4EFF1E0828181110CC0A381B48152
:100AF0008581209154029181291708F064C09C914E
:100B0000892B8C93369622E0E435F20761F78091C9
:100B1000670200E0823009F40FEF809166028823BB
:100B200009F49FC06BDB2091620230916302409117
:100B3000640250916502621B730B840B950B1F823C
:100B4000BA82A9826B837C838D839E83088781E030
:100B5000133009F080E08987512C8091610258168A
:100B600008F07FC05F8200915D0210915E02E0910B
:100B70005F02F0916002CE0101960995482E3FE098
:100B8000351508F44DC0F801659CE00DF11D1124E8
:100B900081838281882309F443C0042D10E03080D2
:100BA000832D9CDA0115110591F460E0832DB5DAEF
:100BB00037C0F5010283812F91DA60E0812FADDA31
:100BC00005CFD501D4CE9C91809589239ACF0F3F34
:100BD000110511F461E0EACFE32DF0E0EC5CFF4F8A
:100BE000E491E43021F140F4E230B1F0E330D1F0AF
:100BF000003811057CF7D9CFE83019F1E93049F117
:100C0000E530B1F78091800080628093800010937E
:100C10008B0000938A0004C084B5806884BD47BC03
:100C200053949BCF84B5806284BD48BCF9CF80913A
:100C30008000806880938000109389000093880072
:100C4000EFCF8091B00080688093B0004092B300F5
:100C5000E7CF8091B00080628093B0004092B400F2
:100C6000DFCFCCDA1B012C0180916F0290917002D2
:100C7000A0917102B0917202A2019101281B390B5F
:100C80004A0B5B0BDA01C901CC97A105B10508F449
:100C900046C0809173020091590210915A0281114D
:100CA00004C000915B0210915C02D80117968C91F0
:100CB0001797811134C017968C91179781112FC007
:100CC00017969C9276DAF8016087718782879387FE
:100CD00095DAD80152966D937D938D939C93559799
:100CE000ED91FC911197808116969C911697892B16
:100CF00080831296ED91FC911397808116969C91BA
:100D0000892B808320926F02309270024092710290
:100D100050927202809173028925809373026EDA79
:100D20001B012C0180916802811135C080916B02FA
:100D300090916C02A0916D02B0916E02A20191019E
:100D4000281B390B4A0B5B0BDA01C90189399A431D
:100D5000A105B10500F11092670270926802F0924D
:100D60006002E0925F024ADA60936202709363026B
:100D700080936402909365029092660285E291E00E
:100D8000DEDBC114D10409F47FCEAEDA882309F486
:100D900077CE36D975CEE0915902F0915A0280890A
:100DA00091892781211123C00197879700F582E35C
:100DB00091E0C5DB81E010916802113059F588237C
:100DC00049F18093670280926802F0926002E0929B
:100DD0005F0214DA6093620270936302809364028C
:100DE000909365021093660282E491E0C9CFE0918E
:100DF0005B02F0915C02808991892781211108C0F2
:100E00000197879728F489E391E099DB82E0D3CFBB
:100E100080E0D1CF809166028111B3CF81E01230A2
:100E200009F480E08093680220926B0230926C0299
:100E300040926D0250926E02A4CFA1E21A2EAA1B1C
:100E4000BB1BFD010DC0AA1FBB1FEE1FFF1FA2177A
:100E5000B307E407F50720F0A21BB30BE40BF50B77
:100E6000661F771F881F991F1A9469F76095709500
:100E7000809590959B01AC01BD01CF010895EE0FC7
:0E0E8000FF1F0590F491E02D0994F894FFCF28
:100E8E00040302131211100F05060708090A0B0CB2
:100E9E0000000000A7010A013701F30168014601B5
:100EAE005A010D0A004C69676874206F66662E2E13
:100EBE002E004469722075700044697220646F7749
:0E0ECE006E004C696768742075702E2E2E0021
:00000001FF
