:100000001AC033C032C06FC2A2C22FC02EC02DC0D2
:100010002CC02BC02AC0CFC228C027C026C025C0F4
:1000200018C223C022C021C020C01FC01EC01DC0D6
:100030001CC01BC0B60611241FBECFEFD4E0DEBF2C
:10004000CDBF21E0A0E0B1E001C01D92A838B20709
:10005000E1F710E0CBE1D0E003C02197FE013AD7F1
:10006000CA31D107D1F73AD33BC7CACF883020F085
:100070008D3008F48DE08E508770806480937C0012
:1000800080917A00806480937A0080917A0086FD66
:10009000FCCF809178009091790008953FB7F89453
:1000A0008091840190918501A0918601B091870192
:1000B00026B5A89B05C02F3F19F00196A11DB11DC3
:1000C0003FBFBA2FA92F982F8827BC01CD01620FFF
:1000D000711D811D911D42E0660F771F881F991FBA
:1000E0004A95D1F708952FB7F894609180017091E7
:1000F000810180918201909183012FBF0895CF9358
:10010000DF93EC018881B2DF4B8129813A8144235E
:1001100059F0A901415F5F4F4817590728F41B8226
:100120008B81DF91CF9108950F9628173907C0F37F
:1001300081E08B83F5CF0F931F93CF93DF93EC0177
:10014000EC81FD8180819E8189239F81923071F4B1
:10015000882339F0A3DF6C877D878E879F8783E0B4
:100160008F83DF91CF911F910F9108959F819330DD
:10017000C1F78111F6CF92DF0C851D852E853F8555
:10018000601B710B820B930B2AE330E040E050E0E0
:1001900063D6398B288B1F82E4CF0F931F93CF93A5
:1001A000DF93EC017BDF2F81213021F50885198554
:1001B0002A853B85601B710B820B930B6A3071059E
:1001C00081059105B8F0EA81FB8190818E8180954F
:1001D00089238083E881F98190818E8180958923AC
:1001E0008083EA81FB8190818E8180958923808341
:1001F00082E08F838F81823088F075DF0A891B89C6
:100200002C893D89601B710B820B930B6F3171053B
:100210008105910518F01F82198A188ADF91CF9104
:100220001F910F910895CF92DF92EF92FF920F935B
:100230001F93CF93DF93EC018A819B81AC81BD81B9
:100240008C3B24E39207A105B10588F0E881F98190
:1002500017828985882321F100E0802FDF91CF91DB
:100260001F910F91FF90EF90DF90CF9008952E8116
:10027000203178F73F813F3F19F43FE0321B232FB5
:1002800064EF71E0269FA001279F500D112470E0BC
:1002900060E084179507A607B70720F40A85DDCF2D
:1002A0000885DBCF841B950BA60BB70B9C01AD011A
:1002B000813767E19607A105B10520F020E737E116
:1002C00040E050E0698561112CC008858037974176
:1002D000A105B10510F6A4EBB0E0ECD520E737E1BD
:1002E00040E050E0B9D5CA01B9011A85A6D5660F1C
:1002F000771F881F991F21E430E040E050E0ACD523
:100300005595479537952795802F811B990BDC01D3
:10031000DBD528EE33E040E050E09ED5012F020F00
:100320009CCF80379741A105B10508F095CFA4EB8C
:10033000B0E0C0D520E737E140E050E08DD5CA01FC
:10034000B901CA85CC2ED12CF12CE12C76D5660FC3
:10035000771F881F991F21E430E040E050E07CD5F2
:100360005595479537952795C701B60166D528EE6F
:1003700033E040E050E070D50C2F021B2C153D05FA
:100380004E055F0508F469CF67CFFC01868188239D
:1003900011F08C30D1F422813381448155812C3D80
:1003A00085E038074105510550F4ACE0B0E082D556
:1003B0002CED35E040E050E04FD5822F08950190BC
:1003C000F081E02D17828CE0089580E00895CF92AF
:1003D000DF92EF92FF92CF93FC018681882311F088
:1003E0008C30F1F422813381448155812C3D85E0AC
:1003F000380741055105D8F4C285CC2ED12CF12CFB
:10040000E12CC701B60119D52CED35E040E050E0F4
:1004100023D58C2F821B2C153D054E055F0508F05A
:1004200080E0CF91FF90EF90DF90CF900895019002
:10043000F081E02D1782F4CF80911101811106C067
:100440008FEF8093100181E08093110180E091E0B3
:1004500008951F920F920FB60F9211242F933F937E
:100460008F939F93AF93BF9380918001909181016F
:10047000A0918201B091830130917F0123E0230F8D
:100480002D3768F126E8230F0296A11DB11D209398
:100490007F018093800190938101A0938201B093AA
:1004A00083018091840190918501A0918601B09192
:1004B00087010196A11DB11D809384019093850150
:1004C000A0938601B0938701BF91AF919F918F91C7
:1004D0003F912F910F900FBE0F901F90189501968E
:1004E000A11DB11DD4CF1F920F920FB60F921124F0
:1004F0002F933F934F935F936F937F938F939F932C
:10050000AF93BF93EF93FF9380916B008F7D8093A8
:100510006B0080912B018250823018F484E291E0CC
:100520000ADE80916B00806280936B00FF91EF91F7
:10053000BF91AF919F918F917F916F915F914F91FB
:100540003F912F910F900FBE0F901F9018951F9203
:100550000F920FB60F9211242F933F934F935F93F7
:100560006F937F938F939F93AF93BF93EF93FF937B
:1005700080916C008E7F80936C008091410182504D
:10058000823018F48AE391E0D6DD80916C008160BE
:1005900080936C00FF91EF91BF91AF919F918F91EC
:1005A0007F916F915F914F913F912F910F900FBE6F
:1005B0000F901F9018951F920F920FB60F92112453
:1005C0008F939F9378948091600190915F01891738
:1005D00008F061C02C9A90915E01891708F05DC007
:1005E0002B9A90915D01891708F059C02A9A909131
:1005F0005C01891708F055C0299A90915B01891711
:1006000008F051C0289A90915A01891708F04DC0FE
:100610005F9A90915901891708F049C05E9A9091AC
:100620005801891708F045C05D9A909157018917C4
:1006300008F041C0419A90915601891708F03DC0D9
:10064000429A909155018917D0F5439A909154019F
:100650008917B8F5449A909153018917A0F5459AE6
:1006600090915201891788F55A9A909151018917F2
:1006700070F55B9A90915001891758F55C9A8F5FDD
:10068000843649F1809360019F918F910F900FBE46
:100690000F901F9018952C989ECF2B98A2CF2A9838
:1006A000A6CF2998AACF2898AECF5F98B2CF5E98F0
:1006B000B6CF5D98BACF4198BECF4298C2CF43988B
:1006C000C5CF4498C8CF4598CBCF5A98CECF5B982A
:1006D000D1CF5C98D4CF10926001D6CFCF93DF9367
:1006E000CDB7DEB72D970FB6F894DEBF0FBECDBFE6
:1006F000789484B5836084BD85B5836085BD809121
:100700006E00816080936E0082E080938100809112
:10071000810081608093810080918000816080935E
:1007200080008091B10084608093B1008091B0001E
:1007300081608093B00087E880937A001092C100B6
:100740007BDEFC019C01205F3F4F1192E217F30713
:10075000E1F72EE1DC0150962C938FB7F894E0E599
:10076000F1E0B1E0E036FB0711F01192FACF2C98DE
:100770002B982A98299828985F985E985D984198B8
:1007800042984398449845985A985B985C988FBFD4
:100790008FB7F894249A239A229A219A209A579AEA
:1007A000569A559A399A3A9A3B9A3C9A3D9A529A55
:1007B000539A549A8FBF1092800089E080938100F1
:1007C0008FE891E0909389008093880080916F007A
:1007D000826080936F0010926001E0916101F0915E
:1007E0006201A081B1818C919681892B8C93A28129
:1007F000B3819C918681809589238C931782118A7D
:10080000108AE0916301F0916401A081B1818C9123
:100810009681892B8C93A281B3819C91868180954E
:1008200089238C931782118A108A809168008360D3
:100830008093680080916B00806280936B00809150
:100840006C00816080936C0081E0809373018E0165
:10085000095F1F4F1D870C87DD24D39433E1632E7E
:1008600031E0732E40DC4B015C0180916701909177
:10087000680145DCC82E0091650110916601D80120
:100880008C91F4DB20E0823391057CF09C01275DA4
:1008900031402F34310540F08158924022E08F34AE
:1008A000910518F023E001C021E0F80181819281D7
:1008B000F92FFF705F2EAC015F7CD80112965C931C
:1008C0004E931197E22E220FFF08FE151F0409F424
:1008D0007FC0907CFE2CEE24E82AF92A1296FC9226
:1008E000EE92119700DCF80163837483858396830D
:1008F000809171011FEF823021F011E0813009F009
:1009000010E080917001882309F4A2C00091720167
:10091000EADB20916C0130916D0140916E015091A4
:100920006F01621B730B840B950B25E0EC85FD8535
:1009300011922A95E9F729E631E03A8329836B83FE
:100940007C838D839E83188777DDDC0150968C91A4
:10095000898781E0033009F080E08A87512C8091FB
:100960006B01581608F074C05F8266DDBFE0B515F4
:1009700008F46CC0FC01E50DF11D80818B875CDD06
:100980007C01E0916901F0916A01CE01019609951F
:10099000482EEFE0E515D0F0052D10E0F701E00F4F
:1009A000F11F808349DDDC0150964C9120E0442307
:1009B00049F0242D30E0D90171D2242F30E050E0ED
:1009C00040E04AD2F801E05BFE4F20835394C7CF4A
:1009D0008ADBD80113962D913D914D915C9116972C
:1009E000621B730B840B950B6F30710581059105AC
:1009F00008F47ECF11968D919C91282F2F7052165E
:100A000009F476CFB0E12B9FA00111248827842B15
:100A1000952BE82AF92AF801F282E182233071F459
:100A2000F3E05F1609F464CF2FECF2226894F4F837
:100A3000D8011296FC92EE9211975ACFB3E05B1256
:100A400057CFEFECFE226894F5F8F2CF80E096CF16
:100A50008091750190917601A0917701B091780114
:100A600095018401081B190B2A0B3B0BD901C80106
:100A7000893E9340A105B10508F42BC11091720184
:100A8000113009F09FC0CC2009F4BCC084E08093F1
:100A900072018092750190927601A0927701B092D6
:100AA000780125EC31E030936A01209369011BDB6A
:100AB00060936C0170936D0180936E0190936F0150
:100AC0001093700180917001882339F08091720138
:100AD000843019F0813009F095C0809161019091C6
:100AE00062015BDB809163019091640156DBFBDA6C
:100AF0001B012C018091790190917A01A0917B01D9
:100B0000B0917C0192018101081B190B2A0B3B0B50
:100B1000D901C80184369105A105B10508F472C058
:100B200080917D0190917E0100916301109164019B
:100B3000892B21F00091610110916201D801179673
:100B40008C91179781115EC017968C911797811120
:100B500059C01796DC92A2DAF80160877187828704
:100B60009387C1DAD80152966D937D938D939C93B0
:100B70005597ED91FC911197808116969C9116974F
:100B8000892B80831296ED91FC91139780811696A4
:100B90009C91892B80832092790130927A01409236
:100BA0007B0150927C0181E090E020917D013091A9
:100BB0007E01232B11F090E080E090937E018093E2
:100BC0007D0120C0143009F084C0C1107BCFD092C9
:100BD00072018092750190927601A0927701B09295
:100BE000780147EE51E050936A01409369017BDA46
:100BF00060936C0170936D0180936E0190936F010F
:100C0000D0927001809167019091680178DA90919B
:100C10007201882309F463C080917001882329F050
:100C2000943019F0913009F05AC0E0916501F091CB
:100C3000660181818F7009F450C08130E9F0E09144
:100C40006101F0916201208931898781811106C09B
:100C5000215031092C32310508F43FC0E091630185
:100C6000F0916401208931898781811138C0215038
:100C700031092C32310598F582E04091750150918F
:100C80007601609177017091780195018401041BD0
:100C9000150B260B370BB901A801811122C0911148
:100CA00006C083E049395A4361057105C0F580915A
:100CB0007001811145C0923009F049C01092720153
:100CC0008092750190927601A0927701B09278019E
:100CD00037C0CC2009F496CFF5CE81E0CECF80E0AE
:100CE000CCCFCC2021F391110EC04D345D41610574
:100CF0007105E8F28092750190927601A0927701D9
:100D0000B0927801D4CF943011F0913081F6403D0B
:100D100057406105710558F28093710182E080931C
:100D2000720170926A0160926901DDD960936C0171
:100D300070936D0180936E0190936F01D09270015A
:100D400040E050E0452B09F48DCD5AD985CD933044
:100D5000B9F7D09272018092750190927601A092BB
:100D60007701B092780110927101EACFCF93DF93AF
:100D7000AAE3B1E087E290E011969C938E9388E21B
:100D800090E013969C938E93129786E290E01596CE
:100D90009C938E93149741E016964C931697179652
:100DA0001C921797C4E2D1E084E290E09983888393
:100DB00085E290E09B838A8383E290E09D838C832D
:100DC00080E28E831F822DE131E086E0F90180838D
:100DD00088E898E0928381831382148215821682B8
:100DE00089E191E057E0FC01508364E670E0728392
:100DF00061831382E1E6F1E0D183C083B383A283F0
:100E0000358324839783868380E1828713861486C3
:100E1000158616861786108A418B128A8CE0838B82
:100E2000148A158A168A178A108E118E128E138EC6
:100E3000158E148EDF91CF910895DB018F939F93D0
:100E400039D0BF91AF91A29F800D911DA39F900DAE
:100E5000B29F900D11240895A1E21A2EAA1BBB1B6C
:100E6000FD010DC0AA1FBB1FEE1FFF1FA217B30776
:100E7000E407F50720F0A21BB30BE40BF50B661F8C
:100E8000771F881F991F1A9469F760957095809550
:100E900090959B01AC01BD01CF010895A29FB001C7
:100EA000B39FC001A39F01D0B29F700D811D11247B
:100EB000911D0895F3DFA59F900DB49F900DA49F01
:100EC000800D911D11240895B7FFF4CFF3DF821B2D
:100ED000930B0895EE0FFF1F0590F491E02D0994F8
:040EE000F894FFCFB4
:00000001FF
